:1000000033C0000013C100003EC1000048C0000022
:1000100046C0000044C0000042C0000040C00000D4
:100020003EC000003CC000003AC0000038C00000E4
:1000300064C0000034C0000032C0000030C00000C6
:100040002EC000002CC000002AC0000028C0000004
:1000500026C0000024C0000022C0000020C0000014
:100060001EC000001CC0000011241FBECFEFD8E04E
:10007000DEBFCDBF11E0A0E0B1E0E4EEF2E002C0EF
:1000800005900D92A230B107D9F711E0A2E0B1E0DE
:1000900001C01D92A730B107E1F7C6D021C1B0CF92
:1000A00020E2209380002AE02093810010928500B6
:1000B0001092840090938B0080938A0084E0809358
:1000C0006F000895109285001092840090938B0029
:1000D00080938A0084E080936F00089580910001EE
:1000E00090910101EFDF109202011D9B05C0E5E236
:1000F000F0E080818F7D808308951F920F920FB66C
:100100000F9211242F933F934F935F936F937F939D
:100110008F939F93AF93BF93EF93FF9381E080936F
:100120000201E5E2F0E0808180628083809100013D
:1001300090910101C7DFFF91EF91BF91AF919F9126
:100140008F917F916F915F914F913F912F910F9080
:100150000FBE0F901F901895823048F5E82FF0E001
:10016000EE0FFF1FED5FFE4F71836083882319F050
:100170008130E9F40CC0E9E6F0E080818C7F842BCB
:100180008083EDE3F0E08081816080830895E9E67B
:10019000F0E080819A01220F331F220F331F837FEB
:1001A000822B8083EDE3F0E080818260808308957C
:1001B000CF93DF93EAE2F0E080818B7F8083E4E2FB
:1001C000F0E080818062808360E070E0C3E2D0E094
:1001D000E5E2F0E0A0E1B7E248EC50E0888185FD7F
:1001E00005C08081806280839D0104C080818F7DF5
:1001F00080839D01CA010197F1F721503040D1F76A
:100200006F5F7F4F6A30710549F780E06EE670E0FE
:1002100042E050E0A1DF809100019091010140DFB8
:100220007894DF91CF910895C3DFFFCF1F920F9293
:100230000FB60F9211242F933F934F935F936F93B9
:100240007F938F939F93AF93BF93EF93FF9380918F
:10025000030190910401892B29F0E0910301F091B1
:1002600004010995FF91EF91BF91AF919F918F91FB
:100270007F916F915F914F913F912F910F900FBEA2
:100280000F901F9018951F920F920FB60F92112486
:100290002F933F934F935F936F937F938F939F938E
:1002A000AF93BF93EF93FF93809105019091060167
:1002B000892B29F0E0910501F09106010995FF9144
:1002C000EF91BF91AF919F918F917F916F915F91CE
:1002D0004F913F912F910F900FBE0F901F90189547
:0402E000F894FFCFC0
:0202E400204EAA
:00000001FF
