:1000000033C00000E9C0000014C1000048C0000077
:1000100046C0000044C0000042C0000040C00000D4
:100020003EC000003CC000003AC0000038C00000E4
:100030005FC0000034C0000032C0000030C00000CB
:100040002EC000002CC000002AC0000028C0000004
:1000500026C0000024C0000022C0000020C0000014
:100060001EC000001CC0000011241FBECFEFD8E04E
:10007000DEBFCDBF11E0A0E0B1E0E0E9F2E002C0F8
:1000800005900D92A230B107D9F711E0A2E0B1E0DE
:1000900001C01D92A730B107E1F79CD0F7C0B0CFE7
:1000A00020E2209380002AE02093810010928500B6
:1000B0001092840090938B0080938A0084E0809358
:1000C0006F000895109285001092840090938B0029
:1000D00080938A0084E080936F00089580910001EE
:1000E00090910101EFDF109206013599459808952E
:1000F0001F920F920FB60F9211242F933F934F939D
:100100005F936F937F938F939F93AF93BF93EF937F
:10011000FF9381E080930601459A809100019091C0
:100120000101D0DFFF91EF91BF91AF919F918F912E
:100130007F916F915F914F913F912F910F900FBEE3
:100140000F901F901895823000F5E82FF0E0EE0F29
:10015000FF1FEE5FFE4F71836083882319F08130AB
:1001600049F00895E9E6F0E080818C7F482B4083D8
:10017000E89A0895E9E6F0E08081440F551F440FA6
:10018000551F837F482B4083E99A089552983D9AE2
:100190003A9A429A8AE090E0359902C0459A01C0A5
:1001A00045982FEF39E648E1215030404040E1F7D3
:1001B00000C000000197009779F742E050E06EE63A
:1001C00070E080E0C0DF809100019091010168DF64
:1001D00078940895DBDFFFCF1F920F920FB60F9236
:1001E00011242F933F934F935F936F937F938F933C
:1001F0009F93AF93BF93EF93FF93809102019091F0
:100200000301892B29F0E0910201F0910301099586
:10021000FF91EF91BF91AF919F918F917F916F91DE
:100220005F914F913F912F910F900FBE0F901F90B4
:1002300018951F920F920FB60F9211242F933F9390
:100240004F935F936F937F938F939F93AF93BF93DE
:10025000EF93FF938091040190910501892B29F080
:10026000E0910401F09105010995FF91EF91BF9193
:10027000AF919F918F917F916F915F914F913F913E
:100280002F910F900FBE0F901F901895F894FFCFED
:02029000204EFE
:00000001FF
